:020000040800F2
:100000001808002061020008F14900086D4100084D
:1000100000000000000000000000000000000000E0
:10002000000000000000000000000000F749000888
:100030000000000000000000F5490008C94B00085E
:1000400073020008730200087302000873020008BC
:1000500073020008730200087302000873020008AC
:10006000730200087302000873020008730200089C
:10007000730200087302000873020008730200088C
:1000800073020008730200087302000800000000F9
:10009000730200087302000873020008730200086C
:1000A000730200087302000873020008730200085C
:1000B000730200087302000873020008730200084C
:1000C00000F002F800F0BDF80CA030C80838241881
:1000D0002D18671EA246AB4654465D46AC4201D180
:1000E00000F0AFF87E460F3EB6460FCC01263342F5
:1000F00000D0FB1A3343A246AB4618479C58000079
:10010000BC580000103A02D378C878C1FAD8520718
:1001100001D330C830C101D504680C6070470000BD
:100120000023002400250026103A01D378C1FBD813
:10013000520700D330C100D50B60704710B56E294F
:1001400002D100F0DBFB10BD702902D100F015FDDB
:1001500010BD662902D105F05DFB10BD652902D1F5
:1001600005F058FB10BD672902D105F053FB10BD07
:10017000612902D105F056FB10BD03681B0A01D3AB
:1001800080231943692902D100F082FB10BD642944
:1001900002D100F07DFB10BD752902D100F078FB83
:1001A00010BD6F2902D100F093FC10BD782902D157
:1001B00000F0D0FC10BDE92902D100F02FFC10BDE9
:1001C000E42902D100F02AFC10BDF52902D100F08B
:1001D00025FC10BDEF2902D100F086FC10BDF829E6
:1001E00002D100F0C5FC10BD0368DB0901D38023F8
:1001F0001943632902D101F0A8F910BD732902D176
:1002000001F0ABF910BDE32902D101F0B5F910BD41
:10021000F32902D101F0B8F910BD002010BD1FB5BF
:1002200001F012FA04000020002105F02FFA401C12
:1002300060600020002105F013FAE0601FBD10B5DA
:1002400010BD01F0DAF91146FFF7E9FF05F0A0F95A
:1002500001F06EFD03B4FFF7F2FF03BC01F0B8FD3F
:100260000748804707480047FEE7FEE7FEE7FEE74E
:10027000FEE7FEE704480549054A064B70470000C3
:10028000794C0008C100000818020020180800205E
:1002900018040020180400204343514330B55C1873
:1002A000010C130C0D4692B25D4380B251432C19E0
:1002B000054655430A0C09044D1962415843010C87
:1002C00000044019514130BDFEB5044610460D46AC
:1002D000184373D0A6468C460020A41A01469D41BF
:1002E00067D36646002701243D46B61A9D4102D3D6
:1002F00013463A462124654676462F04360C3E4383
:100300002D0CB61A9D4104D3150C1B042B4312046B
:100310001034654676462F06360A3E432D0AB61A35
:100320009D4104D3150E1B022B431202083465466F
:1003300076462F0736093E432D09B61A9D4104D350
:10034000150F1B012B431201241D65467646AF078E
:10035000B6083E43AD08B61A9D4104D3950F9B00E5
:100360002B439200A41C65467646EF0776083E4371
:100370006D08B61A9D411AD392185B41641C16E0B1
:100380000018764665464941B71A9D410191009093
:1003900009D36046B11A98418E4684460098019967
:1003A0000025401C6941DD0752082A435B08641E92
:1003B000E6D57246634603B0F0BDFFE7204628430A
:1003C00007D00020C0430146C046C04622462B4607
:1003D000F1E700200146F7E70FB41CB5084B06AA69
:1003E0007B4469460090059800F0A1FA044600207D
:1003F000694600F0AFFA20461CBC08BC04B01847A0
:100400007105000001E004C0091F0429FBD28B071D
:1004100001D50280801CC90700D0027070470029F6
:100420000BD0C30702D00270401C491E022904D31E
:10043000830702D50280801C891EE3E70022EEE7D5
:100440000022DFE7002203098B422CD3030A8B42F0
:1004500011D300239C464EE003460B433CD40022BC
:1004600043088B4231D303098B421CD3030A8B42CE
:1004700001D394463FE0C3098B4201D3CB01C01A9C
:10048000524183098B4201D38B01C01A5241430967
:100490008B4201D34B01C01A524103098B4201D355
:1004A0000B01C01A5241C3088B4201D3CB00C01AC2
:1004B000524183088B4201D38B00C01A524143083A
:1004C0008B4201D34B00C01A5241411A00D201465F
:1004D0005241104670475DE0CA0F00D049420310F8
:1004E00000D3404253409C46002203098B422DD347
:1004F000030A8B4212D38901FC2212BA030A8B42EF
:100500000CD3890192118B4208D3890192118B423D
:1005100004D389013AD0921100E08909C3098B42C2
:1005200001D3CB01C01A524183098B4201D38B0105
:10053000C01A524143098B4201D34B01C01A5241A8
:1005400003098B4201D30B01C01A5241C3088B42ED
:1005500001D3CB00C01A524183088B4201D38B00D8
:10056000C01A5241D9D243088B4201D34B00C01A62
:100570005241411A00D201465241104663465B1077
:1005800001D34042002B00D54942704763465B10BF
:1005900000D3404201B50549002802DC491C08404F
:1005A00000E00846C046C04602BD00BFFFFFFF7F17
:1005B00070477047704700000121C90501234118A9
:1005C00042001B06D3185B0E0AD0C1100722D206C8
:1005D000891840075242D14201D55200891870470C
:1005E000090208D50146002A03D0C10FC90700201F
:1005F000704710467047420202D0002002497047FF
:10060000072109050143F4E70000F87FF0B5FF2555
:100610002D04C609C209FF2704462E400137CB0925
:100620003E4348402A402B400746002A6BD0002B0F
:1006300069D0AA4267D0AB4265D0002800DA3246C2
:100640000125ED0529432C4309022002090AD21A8B
:100650004B0C7F24E31A434C000A7C44E35C7D246A
:100660002404121914145B00A218884201D3521CEE
:1006700000E0400049420C465C4324115C43DB012E
:100680006415E318040A5C43C502200D0C4644437C
:100690006419250A5D432303EC0C0D4665430003F2
:1006A0000019EB184C42A34201D35B18401CD4053F
:1006B0002018002B07D05B00C91804D3401C002968
:1006C00001D1400840003F2189048A4209D3002A11
:1006D00008DC1106090F04D0032149074018C00F98
:1006E000C007F0BD01224100120689187F22520680
:1006F0009142F6D205214907C84201D59010F0BDBC
:10070000FF20C005F0BD002F00DA32461648AA428D
:1007100007D2AB4205D21902090E17D0F80FC00755
:10072000F0BDFF2563002D06AB42F9D84900A94270
:10073000F6D8AB4201D1A942F2D0A94201D10021A1
:1007400001E061004908D0050843F0BD1102090E1F
:10075000FBD0FF200243D005F0BD0A4601461046FB
:1007600054E70000D65100000000C07F1F22030C98
:1007700002D10F2200041CD0030E01D10002083A5E
:10078000030F01D10001121F830F01D18000921EBF
:10079000002801DB4000521ED205511802125118E8
:1007A0001922904004D3491C002801D1490849006E
:1007B00008467047C10FC90700D040420122920786
:1007C0001143D3E701218907D0E770B50446856955
:1007D0000068C10601D5302600E02026C00707D0FA
:1007E00070BD62683046A1689047206A401C206254
:1007F0006D1EF6D570BD70B5044685690078C007DA
:1008000007D170BD6268A16820209047206A401C13
:1008100020626D1EF6D570BD09684A0501D540B24B
:100820007047C905FCD500B2704709684A0501D573
:10083000C0B27047C905FCD580B2704770B50C4690
:100840000546012A05D02878800600D5EA690023EC
:1008500002E0012305E05B1C934202D2E05C002829
:10086000F9D1A869E618C01AA861286AC0182862D8
:100870002846FFF7AAFF04E06A682078A968641C8C
:100880009047B442F8D32846FFF7B5FF70BD00008B
:10089000F7B5002575291068009914A611D0FFF747
:1008A000BBFF002802DA404211A608E0009909685F
:1008B0008A0701D50FA602E0490704D50EA6012537
:1008C00001E0FFF7B2FF009F0024243704E000F0AE
:1008D00080FE30313955641C0028F8D12B46324651
:1008E0002146009800F057FAFEBD0000000000000D
:1008F0002D0000002B00000020000000116802689D
:10090000006A530501D5087009E0D30501D50880B8
:1009100005E0130602D5C21705C100E008600120FA
:100920007047000001694A1C02610878704700B5F1
:100930008FB00291002105910549019379440391FB
:1009400011460490684600F025F90FB000BD000084
:10095000E5FFFFFF0A681070521C0A607047000034
:10096000F7B50446154686B02B487844002703C8DF
:100970003E460090019111E007986A467100415A85
:1009800002A800F005FE411C07D02178890603D596
:10099000E269391891420ED83F18761C20788006FB
:1009A00002D5E069B84206DDAE42E5DB079871008A
:1009B000405A0028E0D1A069C01BA0612046FFF783
:1009C00004FF154878445A3803C80090002001916C
:1009D00016E041006A460798415A02A800F0D8FD87
:1009E0000590401C0AD0002505E0626802A8A168B5
:1009F000405D90476D1C05988542F6D30498401CD5
:100A0000B0420490E5DB206AC01920622046FFF75F
:100A1000F2FE09B0F0BD0000064F0000F7B5D21D90
:100A20000025D20815A6D200F52905CA11D0002A42
:100A300005DA00214042914111A60A4608E00099DA
:100A400009688B0701D50FA602E0490701D50EA65C
:100A500001251146009F0024243704E000F05EF9D0
:100A600030323A55641C02460A43F7D12B463246CF
:100A70002146009800F08FF9FEBD00000000000044
:100A80002D0000002B0000002000000070B504467F
:100A90000021243408E05507D2086D0F3035655425
:100AA0005D072A43DB08491C15461D43F3D1046842
:100AB000002310A2250708D520252C400C4304D084
:100AC000C46901230CA2641EC46100F064F970BD06
:100AD00010B5044621461068FFF7A7FE0023024622
:100AE0002046FFF7D3FF10BDD21DD108C9000CC9A5
:100AF000CCE700000000000030000000F8B50F4611
:100B00000188090502D5224C7C4402E0204C7C443B
:100B10000E3405460021243508E016071209360F69
:100B2000A65D6E541E0732431B09491C16461E4320
:100B3000F3D1224604780023240705D5702F06D070
:100B4000002901D00223113200F025F9F8BD01235C
:100B50001032F9E770B504460D4621461068FFF7DC
:100B600064FE0023024629462046FFF7C7FF70BDFA
:100B7000D21DD308DB000CCBC0E730B403682024BF
:100B80001268234303600823C36130BC0023B5E728
:100B9000704D0000F3B50446002081B0206220466D
:100BA000E1688847002872D0252802D06268A168D1
:100BB000ABE0594F00267F442046E1688847202853
:100BC000054608DB312D06D2781920380078002838
:100BD00001D00643F0E7B00701D50420864300208A
:100BE000E0610746A0612A2D0AD0284604F030FDB6
:100BF000002827D0B8000019303D0090856119E029
:100C00000298BA00121902C8916102902046E16868
:100C10008847012F054617D1E06900281FDA2020F8
:100C200086431CE000980A218069484300994019D6
:100C3000303888612046E1688847054604F008FDA1
:100C40000028EFD1012F0AD02E2D08D12046E168CF
:100C500088470546202006437F1C022FC3DBA0697E
:100C6000002803DA4042A06101200643F00701D0CA
:100C7000102086436C2D0BD0682D09D04C2D3CD014
:100C80006A2D38D0742D38D07A2D36D016E040E059
:100C9000E1682F4620468847B842054609D16C2FA7
:100CA00029D001208002E168064320468847054696
:100CB00004E06C2F1DD0FF2001300643002D28D00A
:100CC00028464138192803D80120C00206432035A0
:100CD000204626602946029A1646FFF72FFA00287A
:100CE00010D001280BD0F61DF008C000083002908B
:100CF00055E74020E1E78020D5E70020D3E7361D07
:100D000002964CE762682846A1689047206A401C1A
:100D100044E7206AFEBD0000EA4C00000B4670B5B7
:100D2000024689078008084319469D08141AA941FC
:100D300025090807054308092C194841250A010619
:100D40000D43010A2C194141200C0D0428430D0CC0
:100D500000194D41002140194D41C0086907084361
:100D6000E908840F8D002543840024184D4124197F
:100D70006D41121BAB4107E00925ED432C115219BF
:100D800063410024401C61411C460A250026551B76
:100D9000B441F1D270BDFFB504460D4681B0243098
:100DA00000902168880604D51022E06991432160F3
:100DB00000E00120A84201DD471B00E00027049865
:100DC000A1697A191018081AA0612078C00602D407
:100DD0002046FFF7FAFC002608E003986268A16845
:100DE000805D9047206A401C761C206204988642F1
:100DF000F3DB2078C0060AD52046FFF7E6FC06E0C4
:100E00006268A16830209047206A401C2062384602
:100E10007F1E0028F4DC07E000986268A168405D4E
:100E20009047206A401C206228466D1E0028F3DC93
:100E30002046FFF7E0FC2078000602D5022005B02E
:100E4000F0BD0120FBE70000FFB50C461E468FB049
:100E500003CA089009914F007D0D00D16D1E00213D
:100E600008460020C0460321099A89050840002A47
:100E700003DA8200801840080840800D01280A909B
:100E800002DD0020C0430A90089807430DD0F048C7
:100E9000F049281848430714189800281DD07542B7
:100EA000291E1DDD0A9842421BE01898012802D035
:100EB0000020302104E00020F24305E02154401CD2
:100EC000B042FBDB30460022189B002121540F99D1
:100ED0008B600A60486013B0F0BDBD1B6D1CDFE77E
:100EE0000A9A002900DA69420BA800F0F5FB0BAB67
:100EF00007CB03AB07C30899099800F059FC6B4670
:100F000007C30146D4480918002D00910BDDD249D2
:100F100003980A9A49424018002303A9039068469F
:100F200000F0B6FE08E003990A9A0023081803A906
:100F30000390684600F056FE6B4607C30004000CA1
:100F400003D00020C043410800E01046189A002A50
:100F500003D00022009215461EE0751E05D4FFF74F
:100F6000DDFE303262556D1EF9D501220843079629
:100F700002D000227F1C04E02078302801D100221A
:100F80007F1E002A069787D01EE0112D07DAFFF793
:100F9000C5FE303262556D1C02460A43F5D1084346
:100FA00003D00098002819D00EE00021681E05E04B
:100FB000235C625C63542254401E491C8142F7DB6F
:100FC000A81B401E07950690079A18990020A05468
:100FD0000F98079B069A81600CC07CE711260020C1
:100FE000189059E7D21DF0B50D460446D10893B0CC
:100FF000C90003C90C900D9104F014FB02460D9832
:10100000C00F01D02D2007E02068810701D52B20DB
:1010100002E04007C00F4001032A0F9001D0072AC9
:1010200005DB03462946204600F012FB0EE120783E
:10103000800601D5E76900E006272846652D04D023
:10104000662814D0672D69D12DE00020112F009063
:1010500001DB112300E07B1C0CAA03A910A8FFF7F9
:10106000F3FE1199002610987D1C0E9142E001209C
:101070003B460CAAC0070B900120009003A910A8C2
:10108000FFF7E2FE119D12981099002600280E9598
:1010900001D1781C0D18781B02D446427D1C761EA7
:1010A000E81B00903AE0012F00DA01270020112F01
:1010B000009001DD112300E03B460CAA03A910A813
:1010C000FFF7C2FE11993D46109800260E91217837
:1010D00009070BD40E99A94200DA0D4603A9012D88
:1010E00004DD4A19203AD27F302A06D0B84201DA0C
:1010F000011D04DA012100910FE06D1EEFE70028C9
:1011000002DC86192D1A03E0411CA94200DD0D46C0
:10111000801B401C00900120C0070B902078000726
:1011200005D40098A84202DB0020C0430090694625
:101130000020C8720B98012102AF0337C90788420B
:1011400025D0022010902B2011900B9800280BDA4C
:1011500040420B902D20119006E00B9800F039FAD8
:1011600030317F1E0B9039701099481E0029109065
:10117000F3DC0B980028F0D111987F1E387020887E
:10118000000501D5452000E065207F1E387001A8CC
:10119000C01BC01D0B900F98002800D001204119E2
:1011A0000098C01709180B980818A169081A401E62
:1011B000A0612078C00602D42046FFF706FB0F98F6
:1011C000002805D06268A1689047206A401C206210
:1011D0002078C00625D52046FFF7F7FA21E0002E3B
:1011E00007DB0E98B04204DD03A86268805DA16849
:1011F00002E06268A16830209047206A761C401C9B
:1012000020620098401E002800900AD100F01CFACD
:10121000C06862680168405CA1689047206A401C11
:10122000206228466D1E0028D9DC07E06268387805
:10123000A1687F1C9047206A401C20620B99481EC1
:1012400000290B90F2DC2046FFF7D5FA032042E696
:1012500001FCFFFF104D0000E1DFFFFFD21DF0B5E4
:1012600004460D46D0088DB0C00046680768314678
:10127000384604F0D7F90246F00F01D02D2307E0DD
:101280002068810701D52B2302E04007C00F4301EE
:101290006846002B037001D0012000E00020032AE3
:1012A0000A9001D0072A04DB2946204600F0D0F935
:1012B0002DE12078800601D40D2500E0E56970005D
:1012C000400D0D2D01904BDA300D00210B9008469A
:1012D0000020C046032189050840002E05DA82005F
:1012E0008018C20F1018401008408015012801DD39
:1012F0000020C043A9000023182906D39C460A46B3
:101300000123183A1B07D34003E001221205CA400B
:1013100094460C31202902D33A46203900E0324667
:101320008A40002802DD002A06D119E0002817D1E2
:101330000121C9078A4213D3194663467F185E41CB
:10134000002806D10120C007824202D10846874307
:101350009E430B98310D814202D00198401C0190B0
:101360002088000502D57149794402E06F4979442B
:1013700019396B460A9830221A540A980A7C401C84
:101380001A54401C0A900198002801DC302000E02B
:1013900031201872019A0120002A02D0644BD21821
:1013A00004E072003A4302D0614A521C0192002DBF
:1013B00002DC2278120703D56A462E2050720220E2
:1013C0000022864694460CE032033601120F6D1E51
:1013D0008B5C02AA13546246521C401C9446052A98
:1013E00001DA002DF0DC002202AE08E03B0F3F01E5
:1013F000CB5C521C6D1E3354401C082A01DA002DB0
:10140000F4DC23689A0601D511E0401E704504DD26
:101410003218203AD27F302AF7D0002807DD321860
:10142000203AD27F2E2A02D11A0700D4401E002D66
:1014300003DD3E223254401C6D1E497C315401991B
:10144000401C002906DA2D21471C315401984042E6
:10145000019003E02B21471C315401987D21C900E4
:10146000884206DBFEF7F8FF3030F0557F1C019113
:1014700001E0642808DB01986421FEF7EDFF3030BD
:10148000F0557F1C019101E00A2806DB01980A2132
:10149000FEF7E2FF3030F0557F1C01980A21FEF77D
:1014A000DBFF3031F1550A98A1697F1C7A191018B9
:1014B000081AA0612078C00602D42046FFF785F9FB
:1014C000216A6E460A980818206204E06268307843
:1014D000A168761C90470A98401E0A90401CF5D1DE
:1014E0002078C00602D52046FFF76FF902AE09E06A
:1014F0003078761C3E280DD06268A1689047206A3B
:10150000401C20627F1EF3D22046FFF774F90DB015
:101510000320F0BD206A4019206203E06268A168E0
:10152000302090476D1EEDD3F8E700005C450000C9
:1015300001FCFFFF10B54369002B02D0C046C04636
:1015400001E0FFF77BF9012010BD1278014624313C
:101550000A7000224A700122ECE711680022D2438F
:10156000E8E710B54369002B02D0C046C04601E051
:10157000FFF7F6F9012010BD12880146243182845C
:101580000022C2840122ECE711680022D243E8E77E
:10159000F8B516460C46054600F04EF80368FF20E5
:1015A0000230C05C012807D0FF2C0FD8185D00283E
:1015B0000CD001202C70F8BDFF3332462146083391
:1015C0001868C71828460023B847F8BD0020C04354
:1015D000F8BD01468008081A02091018020A1018FE
:1015E000020C1018C008820012185200891A01E07B
:1015F000401C0A390A29FBD27047754600F0A0FB4F
:10160000AE46050069465346C008C000854618B07E
:1016100020B5FEF72FFE60BCB64600260027C0C5E9
:10162000C0C5C0C5C0C5C0C5C0C5C0C5C0C5403D9A
:10163000490849008D46704710B500F005F8001DB7
:1016400010BD00BF4940000000487047380000202E
:10165000F8B51F46044601230068DB020326014655
:101660001840072A05DB002801D017A506E017A5BA
:1016700004E0002801D016A500E016A51020814343
:101680002160A069C01E002FA06101D0401EA06192
:101690002046FFF79AF8002F09D038466268A16803
:1016A0009047206A401C2062C01C206206E0206A2D
:1016B000FAE762682878A1686D1C9047761EF8D218
:1016C0002046FFF798F8F8BD4E414E006E616E005F
:1016D000494E4600696E6600F7B516468AB0334833
:1016E00078446C4603467C33C06F5A689B680DC4CF
:1016F0002E487844763003AC0DC80DC43720C001A5
:10170000081837211B30FEF7A7FE05460C46803D22
:101710001B3C02D56442012000E000200027099014
:1017200010E0E0070CD00C20204978437944324681
:101730004C3941186846012300F054FA6B4607C340
:1017400064107F1C002CECD1184F7F442E3F16E014
:10175000E80712D02001C0190EC80691089307921D
:101760000068F04201D1981908903246012306A979
:1017700003A800F037FA03AB07C36D10641C002DFB
:10178000E6D10998002806D032466946012303A80D
:1017900000F07EFA05E001233246694603A800F016
:1017A00021FA0A9B07C30DB0F0BD0000F84100000C
:1017B000034640000A4610B5400D0BD00121C90771
:1017C0000F24A40200191C0364082143540D214373
:1017D000D20207E000210120F2E7D40F49002143A3
:1017E0005200401E0029F8DADB0FDB07184310BD5A
:1017F000FFB50D46144685B04868516803F0FAFEFF
:1018000000910190A868A16803F0F4FE0291039092
:10181000A868616803F0EEFE029A121882420292F2
:1018200001D2012000E00020019A0B18D2180028F4
:10183000019202D08A4202D903E08A4201D20120F9
:1018400000E000200099081800906868A16803F083
:10185000D1FE029A12188242029201D2012000E0C7
:101860000020019A0B18D2180028019202D08A4257
:1018700002D903E08A4201D2012000E00020009951
:10188000081800902868216840004900400849086D
:101890004018FA49471814E001994000C90F08435D
:1018A0000090019802994000C90F084301900298E6
:1018B00003994000C90F08430290039840007F1E1F
:1018C000039000980028E7DA0898002801D0EC4E31
:1018D00000E00026B74201DA012000E000200028E5
:1018E00004902AD0F71BF806C00E15D0029B2021C9
:1018F000091A039A8B401A430392029A019BC24031
:101900008B401A430292019A009BC2408B4000997F
:101910001A430192C14000917B110DD06F46032004
:10192000C11A03D500218200B95003E08A0081006A
:10193000BA587A50401EF3D53746039802990028CA
:1019400000D00120014308980291002808460CD0DD
:10195000002800D001200199019A4905084301217E
:10196000D20AC902D202019200E001210E9B01229B
:10197000D207012B02D0002B03D013E0002807D19F
:1019800020E0904204D890420CD1019B0B4209D038
:10199000019B5918019105D10099491C009101D171
:1019A0007F1C009200280DD0102108460020C04660
:1019B0000498002806D00F98002803D00821084674
:1019C0000020C04628682168019B009A4840C10F4A
:1019D0000598C90739430EC009B0F0BDFFB587B0FF
:1019E000099A0898089953689268406889689646E9
:1019F0000022039317469446089A12685300099AE6
:101A00005B081268520052089A1A9E4BD4180A9A20
:101A1000002A01D0352200E0402206920022012354
:101A200015460492DB07059324E0002D05D1754689
:101A30000346039E4D1BB34109D375466646039B7F
:101A4000491B049D9841059B7519AC465F4163464F
:101A50003B4308D0059B049EDD0776082E435B08B8
:101A60000496059301E0521E641EC50FED07491848
:101A70004041521C069B9A42D7DB002D04D175468B
:101A8000039A6B1A824101D203200CE0039A0B46A1
:101A90006B404240134303D0014303D0012002E0D6
:101AA000022000E000206146019100210097029190
:101AB0000A99002905D0614640020143704B01910B
:101AC00002E08007002302909C4201DA012000E03E
:101AD000002007003AD01A1BD006C00E15D0029D78
:101AE0002021019C091AC5408C402543029C8C4052
:101AF00000D001242543019C0295009DC4408D40E7
:101B000000992C430194C140009154111DD06D46A1
:101B10000221002202290CD10320001B07E000282B
:101B200004DB8600AE59002E00D00122401C0328A1
:101B3000F5DB081B02D588002A5004E080002858F5
:101B400010438A00A850491EE3D51C460A98002875
:101B500002980CD0002800D001200199019A490573
:101B600008430121D20AC902D202019200E00121F8
:101B7000109B0122D207012B02D0002B03D013E0CF
:101B8000002807D11FE0904204D890420CD1019B5D
:101B90000B4209D0019B5918019105D10099491CAC
:101BA000009101D1641C009200280CD0102108463D
:101BB0000020C046002F06D01198002803D008212D
:101BC00008460020C04608980999019A009B0068C1
:101BD00009684840C10F0798C907214382600AC0BD
:101BE0000BB0F0BD00B585B0019300920A460146E6
:101BF000002302A8FFF7FCFD02A807C805B000BD3E
:101C0000FFB50A461F4685B007990193012300914D
:101C1000014602A8FFF7ECFD02990398049ECA0F43
:101C20004900D20700920F22490892028C1A002123
:101C3000002800DB0C46450013486D08844214D38D
:101C4000079A002A04DA441E0026104DF64302E0EB
:101C500004460D460E46102108460020C046002FBF
:101C600003D0042108460020C0462005E90A0843A5
:101C7000009908436905F20A1143ADE602C0FFFF6F
:101C8000013C0000FF3F0000FF070000FFFFFF7F57
:101C900000B585B0019300920A460146002302A8D0
:101CA000FFF79CFE02A807C8A8E7FFB50A461F4633
:101CB00085B00799019301230091014602A8FFF71F
:101CC0008DFE02990398049ECA0F4900D207009224
:101CD0000F22490892028C1A0021002800DB0C46D2
:101CE000450011486D08844214D3079A002A04DA8B
:101CF000441E00260D4DF64302E004460D460E46F6
:101D0000102108460020C046002F03D004210846B9
:101D10000020C0462005E90A0843009908436905E8
:101D2000F20A114358E60000FF070000FFFFFF7FA3
:101D300010B50446C046C0462046FEF78BFA10BDDB
:101D40000048704718000020024670B50A43920709
:101D50002AD11E4DEE0104C808C9541B94433440D7
:101D600017D0D0B2D9B2401A2106014310D190B297
:101D700099B2401A210401430AD110021902000A43
:101D8000090A401A2102014302D1100E190E401A0D
:101D900070BD9A42DFD010BA19BA884201D9012029
:101DA00070BD0020C04370BD02780B78401C491CF8
:101DB000002A09D09A4207D102780B78401C491CAE
:101DC000002A01D09A42EFD0D01A70BD0101010162
:101DD00001491820ABBEFEE7260002007047000054
:101DE00080B584B0039003980190094800680949C0
:101DF000FEF728FB019948430290FFE7029800286C
:101E000004D0FFE70298401E0290F7E704B080BDBF
:101E10000000002040420F0081B0EFF3108072B646
:101E20000090FFE7FEE7000080B584B002900191CA
:101E3000FFE702985021405C012804D1FFE703A985
:101E40000220087093E00299502201208854FFE795
:101E5000FFE7029800688068042108408008002895
:101E60000FD0FFE70299486D202210434865FFE735
:101E70000299502200208854FFE703A9012008702E
:101E800075E0019840683C49884234D0FFE70198EA
:101E900002683B48024002980168886A10438862E1
:101EA00001988078400700280AD5FFE7DF490868D5
:101EB0000122D205104308600A20FFF791FFFFE7D7
:101EC000019880788007002807D5FFE7D749086880
:101ED0000122920510430860FFE701988078C0074F
:101EE000002807D0FFE7D1490868012212061043F5
:101EF0000860FFE731E001980068C2431F480243D1
:101F000002980168886A10408862019880784007CA
:101F1000002807D5FFE7C54908680122D20590438C
:101F20000860FFE7019880788007002807D5FFE761
:101F3000BE4908680122920590430860FFE70198B6
:101F40008078C007002807D0FFE7B8490868012259
:101F5000120690430860FFE7FFE7FFE7029950226F
:101F600000208854FFE703A900200870FFE703A8BA
:101F7000007804B080BDC046011000000000F8FFEA
:101F8000FFFF070080B584B002900298002804D1BA
:101F9000FFE703A90120087043E10298406D002883
:101FA0000AD1FFE7029900208865029950228854DF
:101FB000029800F03FF9FFE70298406D10210840B9
:101FC000102809D0FFE702980068806804210840C3
:101FD000800800280FD0FFE70299486D10221043B7
:101FE0004865FFE70299502200208854FFE703A9C3
:101FF0000120087015E10298406D0221084301217B
:1020000009028843029948650298006881680320A4
:10201000014000200129019005D1FFE702980068E6
:1020200000680190FFE70198C007002845D1FFE74D
:10203000FFE7029840680321890788420ED0FFE736
:102040000298406801218907884207D0FFE702987B
:1020500040680121C90788420ED1FFE70298016854
:102060000869032292079043086102984268016858
:1020700008691043086112E00298016808690322A8
:10208000920790430861694908680F2292049043BF
:10209000086002984268086810430860FFE7FFE79D
:1020A00002980168C86818229043C8600298826844
:1020B0000168C8681043C860FFE75C4908680122EE
:1020C0005206904308600298406B4206086810432D
:1020D0000860029800688068C000002808D4FFE704
:1020E0000298016888680122120710438860FFE7A0
:1020F00002980168C8684E4A1040C8600298009073
:10210000C2680169891E4B42594189000A43202156
:10211000415C49030A432C21415C49000A43016B9D
:102120000A43816989030A43C169C9030A430168F3
:10213000C8681043C8600298406AFF21C2318842D3
:1021400009D0FFE70298426A816A0A430168C868B9
:102150001043C860FFE702982121405C01281AD192
:10216000FFE702982021405C002808D1FFE7029891
:102170000168C868012212041043C8600AE002998D
:10218000486D2022104348650299886D0122104352
:102190008865FFE7FFE70298C06B012818D1FFE7C9
:1021A000029801680869FF22920090430861029832
:1021B000026C416C0A43816C0A4301680869104350
:1021C00008610298016808690122104308610EE065
:1021D000029800680069C007002807D0FFE702984E
:1021E00001680869012290430861FFE7FFE7029850
:1021F000016848690722904348610298826B016830
:102200004869104348610299002088650299496D28
:102210000122114302229143029A516503A90870D9
:10222000FFE703A8007804B080BDC046082701403E
:102230001902FEFF80B588B0079000200690059037
:1022400004900390029007980068114988421DD1BC
:10225000FFE7DC4908680122520210430860FFE7EB
:102260000C48026801210A4302600068084001909E
:102270000198FFE7022002900320039000200490C1
:102280000520000702A900F029F8FFE708B080BD8B
:10229000002401402C10024080B584B0039000F06F
:1022A000BDF90290039801900198401C002806D0C7
:1022B000FFE709480178019840180190FFE7FFE720
:1022C00000F0ACF90299401A0199884201D2FFE767
:1022D000F6E704B080BDC0460E0000208CB00B9025
:1022E0000A910020099008900790FFE70A9800687B
:1022F0000999C840002800D162E10A980068099A4B
:1023000001219140084008900898002800D153E12D
:102310000A98406803210840012807D0FFE70A987F
:1023200040680321084002282CD1FFE70B98806801
:10233000079009984000032181400798884307903F
:102340000A98C1680998400081400798084307909F
:1023500007980B9988600B984068079009980121AD
:1023600081400798884307900A98406810210840E8
:1023700001090998814007980843079007980B992D
:102380004860FFE70A98406803210840032816D0F8
:10239000FFE70B98C068079009984000032181402F
:1023A0000798884307900A988168099840008140FF
:1023B00007980843079007980B99C860FFE70A98A9
:1023C000406803210840022820D1FFE70B980999B3
:1023D000C90889004018006A079009984007C00E94
:1023E0000F2181400798884307900A98016909984E
:1023F0004007C00E814007980843079007980B9943
:10240000099AD208920089180862FFE70B980068C1
:10241000079009984100032002468A40079991439A
:1024200007910A994968014009984000814007983E
:102430000843079007980B9908600A9880798007ED
:10244000002800D1B7E05F49086801221043086006
:102450000998032188435C494058079009988007F0
:10246000000F0F2181400798884307900B980521A2
:102470000907884203D1FFE70020069038E00B9857
:102480005249884203D1FFE7012005902DE00B98C7
:102490004F49884203D1FFE70220049022E00B98C5
:1024A0004C49884203D1FFE70320039017E00B98C3
:1024B0004949884203D1FFE7042002900CE00B99C0
:1024C000464A0520062300939142019001D00098CE
:1024D000019001980290FFE702980390FFE70398AC
:1024E0000490FFE704980590FFE705980690FFE742
:1024F000069909988007000F8140079808430790C4
:1025000007980999032291432F4A8850344800685C
:10251000079008990798884307900A988079C00720
:10252000002805D0FFE70899079808430790FFE7C0
:1025300007982B4908602B4800680790089907986E
:10254000884307900A9880798007002805D5FFE71F
:102550000899079808430790FFE707982149086002
:1025600021480068079008990798884307900A98BF
:102570008079C006002805D5FFE708990798084329
:102580000790FFE707981849086018480068079007
:1025900008990798884307900A9880798006002850
:1025A00005D5FFE70899079808430790FFE70798C4
:1025B0000E490860FFE7FFE70998401C099095E67F
:1025C0000CB0704734100240080001400004005075
:1025D00000080050000C005000100050001C00507B
:1025E0000004014004040140080401400C040140BF
:1025F00083B0029001A8018068460270007800282C
:1026000005D0FFE701A800880299886104E001A8CD
:10261000008802998862FFE703B0704701480068AC
:102620007047C0461002002010B583B001900091A1
:1026300001984121405C202839D1FFE7FFE701984C
:102640004021405C012804D1FFE702A90220087064
:1026500031E00199402201208854FFE7FFE701990A
:102660004122242088540198016808680123984376
:1026700008600198016808681C03A0430860009C7A
:10268000019801680868204308600198016808689B
:1026900018430860019920208854FFE701994022DF
:1026A00000208854FFE702A90020087003E002A977
:1026B00002200870FFE702A8007803B010BD84B0C4
:1026C0000290019102984121405C20283FD1FFE710
:1026D000FFE702984021405C012804D1FFE703A9ED
:1026E0000220087037E00299402201208854FFE759
:1026F000FFE7029941222420885402980168086863
:1027000001239843086002980068006800900098D0
:102710000F210902884300900198010200980843A4
:10272000009000980299096808600298016808689A
:1027300018430860029920208854FFE7029940223C
:1027400000208854FFE703A90020087003E003A9D4
:1027500002200870FFE703A8007804B0704700006B
:1027600080B582B000900098002804D1FFE701A94D
:102770000120087074E000984121405C002808D1D5
:10278000FFE70099402200208854009800F0CEFA1C
:10279000FFE70099412224208854009801680868C6
:1027A000012290430860009948680F231B06984354
:1027B00009680861009801688868D20390438860BE
:1027C0000098C068012808D1FFE7009988680122B5
:1027D000D20310430968886007E0009988682122C5
:1027E0009202104309688860FFE70098C0680228D9
:1027F00006D1FFE7009801680120C0024860FFE7AA
:10280000009801684868184A1043486000980168B9
:10281000C8680122D3039843C860009908694B69CE
:1028200018438B691B0218430968C8600099C8697E
:102830000B6A18430968086000980168086810432B
:102840000860009900204864009A41232021D15457
:102850000099086300994222885401A90870FFE793
:1028600001A8007802B080BD00800002B0B58AB037
:10287000044610980F980E9D089407AC218006A975
:102880000A8005A90B8004A9088008984121405CB2
:10289000202800D012E10E98002805D0FFE704A8F8
:1028A0000088002807D1FFE7089A012041025164FF
:1028B00009A9087006E1FFE708984021405C01285B
:1028C00004D1FFE709A902200870FBE00899402223
:1028D00001208854FFE7FFE7FFF7A0FE0390089868
:1028E000039900910122D103192301F0C9FD0028A9
:1028F00004D0FFE709A901200870E3E0089941220C
:1029000022208854089942224020885408990020A7
:1029100048640E99089A51620499089A5185089959
:102920004863089807A9098806AA128805AB1B887E
:10293000109C039D0195009401F0C0FC00280AD072
:10294000FFE7FFE70899402200208854FFE709A924
:1029500001200870B6E00898408D000A00280FD0CA
:10296000FFE70899FF200885089807A90988282209
:10297000825C564B009301231B0601F059FD0FE0CA
:102980000898408D08990885089807A90988282281
:10299000825C4E4B009301235B0601F049FDFFE78B
:1029A000FFE70898109B039900910421002201F091
:1029B00067FD002804D0FFE709A90120087081E025
:1029C00008980068406A0899496A08700899486A36
:1029D000401C48620899088D401E08850899488D5A
:1029E000401E48850898408D00283AD0FFE7089897
:1029F000008D002835D1FFE70898109B03990091BE
:102A00008021002201F03CFD002804D0FFE709A945
:102A10000120087056E00898408D000A00280FD069
:102A2000FFE70899FF200885089807A90988282248
:102A3000825C0023009301231B0601F0F9FC0FE0E8
:102A40000898408D08990885089807A909882822C0
:102A5000825C0023009301235B0601F0E9FCFFE7A1
:102A6000FFE7FFE70898408D00289AD1FFE7089814
:102A70001099039A01F04BFD002804D0FFE709A943
:102A8000012008701EE0089801682020C86108999C
:102A90000A685168A44B1940516008994122885432
:102AA0000899422200208854FFE70899402200201C
:102AB0008854FFE709A90020087003E009A9022053
:102AC0000870FFE709A800780AB0B0BD00240080B4
:102AD000B0B58AB0044610980F980E9D089407ACC4
:102AE000218006A90A8005A90B8004A908800898FE
:102AF0004121405C202800D00EE10E98002805D02E
:102B0000FFE704A80088002807D1FFE7089A012002
:102B10004102516409A9087002E1FFE708984021C9
:102B2000405C012804D1FFE709A902200870F7E002
:102B30000899402201208854FFE7FFE7FFF76EFD68
:102B400003900898039900910122D103192301F001
:102B500097FC002804D0FFE709A901200870DFE0F6
:102B60000899412221208854089942224020885403
:102B70000899002048640E99089A51620499089AAD
:102B8000518508994863089807A9098806AA1288F8
:102B900005AB1B88109C039D0195009401F0EAFB96
:102BA00000280AD0FFE7FFE7089940220020885458
:102BB000FFE709A901200870B2E00898408D000ADB
:102BC00000280FD0FFE70899FF200885089807A97B
:102BD00009882822825C0023009301231B0601F050
:102BE00027FC0FE00898408D08990885089807A9E8
:102BF00009882822825C0023009301235B0601F0F0
:102C000017FCFFE7FFE708981099039A01F0C5FC4D
:102C1000002804D0FFE709A90120087080E0089986
:102C2000486A0078096888620899486A401C4862C6
:102C30000899488D401E48850899088D401E0885D2
:102C40000898408D00283AD0FFE70898008D0028AA
:102C500035D1FFE70898109B03990091802100224D
:102C600001F00EFC002804D0FFE709A9012008703C
:102C700056E00898408D000A00280FD0FFE7089919
:102C8000FF200885089807A909882822825C00236C
:102C9000009301231B0601F0CBFB0FE00898408D49
:102CA00008990885089807A909882822825C0023CA
:102CB000009301235B0601F0BBFBFFE7FFE7FFE7A3
:102CC0000898408D00289ED1FFE708981099039A34
:102CD00001F01DFC002804D0FFE709A901200870BD
:102CE0001EE0089801682020C86108990A685168A8
:102CF0000D4B19405160089941228854089942228D
:102D000000208854FFE70899402200208854FFE7FC
:102D100009A90020087003E009A902200870FFE754
:102D200009A800780AB0B0BD00E800FE80B588B000
:102D30000790002006900590049003900290079859
:102D400000681349884220D1FFE7FFE71148026875
:102D500002210A4302600068084001900198FFE7E1
:102D60000320810202911221039100210491059018
:102D700006200690084802A9FFF7B0FA3D49086806
:102D80000122920510430860FFE708B080BDC046ED
:102D9000005800402C100240000400502C480278DB
:102DA00002490868801808607047C0461002002079
:102DB00080B582B001A9002008700A4A116840233A
:102DC0001943116000F010F8002804D0FFE701A9B2
:102DD0000120087002E000F03FF8FFE701A800784A
:102DE00002B080BD0020024080B584B00290174838
:102DF00000680190164801787D20C000FDF722FB95
:102E000001460198FDF71EFB01F018F9002804D0D7
:102E1000FFE703A90120087014E00298032809D8ED
:102E2000FFE702990022D04300F026F802980949F2
:102E3000086003E003A90120087003E003A9002053
:102E40000870FFE703A8007804B080BD00000020F0
:102E50000E000020100000200549086801221043E0
:102E60000860CA4908681207104308607047C046E6
:102E7000341002403810024080B584B0034603A8E5
:102E800003700291019200214056029902F03EFB2C
:102E900004B080BD80B586B0049001A90020087000
:102EA0000498006820210840202806D0FFE70498F5
:102EB00040780007002800D4F1E0049800788006EC
:102EC000002801D5FFE7FFE70498407800070028B5
:102ED00001D5FFE7FFE7AD480068C000002809D42E
:102EE000FFE7AA4A1168012003071943116001A9ED
:102EF0000870FFE7A6480068C00500281DD4FFE75A
:102F0000A34908680122120210430860FFF786FBFC
:102F10000390FFE79E480068C00500280CD4FFE737
:102F2000FFF77CFB0399401A652804D3FFE705A946
:102F30000320087025E1EDE7FFE7964800680321CC
:102F40000A0510400290029804994968114088428D
:102F500009D1FFE7029804998968032212051140FC
:102F6000884214D0FFE70498406803210904084010
:102F700088420BD1FFE7874800688003002804D50A
:102F8000FFE705A901200870FBE0FFE7FFE78248A3
:102F9000006803210904084002900298002851D0DB
:102FA000FFE70298049949680322120411408842FD
:102FB00007D0FFE7049800682021084020280FD0A0
:102FC000FFE702980499896803221204114088429D
:102FD00038D0FFE7049840780007002832D5FFE793
:102FE0006D49086803221204904302900868012288
:102FF000D204104308600868904308600298086093
:1030000002A84078C00700281BD0FFE7FFF706FBA7
:103010000390FFE760480068012149020840400A28
:1030200000280DD1FFE7FFF7F9FA0399401A5C4930
:10303000884204D3FFE705A903200870A1E0E9E76F
:10304000FFE7FFE7FFE7FFE7049840680321090473
:10305000084088420BD1FFE74E4908680322130558
:103060009843049A52681A4080180860FFE7FFE707
:10307000049842680320000402404749086810434E
:103080000860FFE701A80078012807D1FFE73F4962
:1030900008680122120790430860FFE7FFE70498E1
:1030A0000078C007002809D0FFE73C4908680322E0
:1030B0009043049AD26810430860FFE704980078B0
:1030C0008007002809D5FFE7344908680C2290439F
:1030D000049A126910430860FFE7049800784007DB
:1030E00000280AD5FFE72D49086803229202904381
:1030F000049A526910430860FFE7049800780007BB
:1031000000280AD5FFE725490868032212039043E7
:10311000049A926910430860FFE704984078C0075A
:1031200000280AD0FFE71D490868032212049043D3
:10313000049AD26910430860FFE7049800784006BB
:1031400000280AD5FFE71549086801229206904336
:10315000049A526A10430860FFE70498007800065A
:1031600000280AD5FFE70D4908680322920490431E
:10317000049A126A10430860FFE705A9002008704E
:10318000FFE705A8007806B080BDC04638100240B1
:103190000070004000100240501002404C100240ED
:1031A0008913000080B586B004900391049800282C
:1031B00004D1FFE705A90120087062E10398B34933
:1031C000096801221140884221D9FFE7AF49086808
:1031D00001229043039A10430860FFF71FFA029000
:1031E000FFE7AA48006801210840039988420DD0F2
:1031F000FFE7FFF713FA0299401AA549884204D362
:10320000FFE705A9032008703BE1EAE7FFE7049820
:1032100000788007002809D5FFE7B1490868F02247
:103220009043049A926810430860FFE7049800787E
:10323000C007002800D1BCE00498406802280ED1E5
:10324000FFE7F3480068012149040840400C0028CA
:1032500004D1FFE705A90120087012E134E00498C9
:10326000406803280ED1FFE7E948006801214906BC
:103270000840400E002804D1FFE705A9012008708E
:10328000FFE020E00498406801280DD1FFE7E04806
:103290000068042108408008002804D1FFE705A940
:1032A00001200870EDE00DE0D948006801214902D5
:1032B0000840400A002804D1FFE705A90120087052
:1032C000DFE0FFE7FFE7FFE7CF490868032290430D
:1032D000049A526810430860FFF7A0F9029004981E
:1032E0004068022816D1FFE7FFE7C74800680C21B5
:1032F000084008280DD0FFE7FFF790F90299401A1F
:103300006349884204D3FFE705A903200870B8E0A9
:10331000EBE74DE004984068032816D1FFE7FFE78C
:10332000B94800680C2108400C280DD0FFE7FFF7D2
:1033300075F90299401A5649884204D3FFE705A956
:10334000032008709DE0EBE731E004984068012815
:1033500016D1FFE7FFE7AC4800680C2108400428BD
:103360000DD0FFE7FFF75AF90299401A4849884201
:1033700004D3FFE705A90320087082E0EBE715E01E
:10338000FFE7A14800680007800F00280DD0FFE785
:10339000FFF744F90299401A3D49884204D3FFE7F8
:1033A00005A9032008706CE0EBE7FFE7FFE7FFE704
:1033B000FFE703983549096801221140884221D26C
:1033C000FFE73249086801229043039A10430860DE
:1033D000FFF724F90290FFE72C480068012108401C
:1033E000039988420DD0FFE7FFF718F90299401AB8
:1033F0002749884204D3FFE705A90320087040E06D
:10340000EAE7FFE704980078400700280AD5FFE7BD
:103410007D490868072212029043049AD26810433B
:103420000860FFE704980078000700280BD5FFE745
:10343000754908680722D2029043049A1269D200A3
:1034400010430860FFE700F04FF86F490968C9B200
:103450000A091049895CC840124908600E48006892
:10346000FFF7C2FC014601A801700078002804D0D3
:10347000FFE7019805A9087003E005A9002008707E
:10348000FFE705A8007806B080BDC04600200240D6
:1034900089130000705900081000002001480068DE
:1034A0007047C0460000002080B5FFF7F7FF56497F
:1034B00009680722120211400A0A0A49895CC840B9
:1034C00080BDC04680B5FFF7E9FF4F490968072274
:1034D000D2021140CA0A0349895CC84080BDC04677
:1034E0000C1002408059000880B58AB04648006838
:1034F000099009980C21084003900C2875D803986E
:10350000810001A040588746E9350008EB350008E6
:10351000EB350008EB3500083D350008EB350008B9
:10352000EB350008EB35000857350008EB3500088F
:10353000EB350008EB3500085D35000834480068BD
:10354000C006002803D5FFE73348049002E0314865
:103550000490FFE755E03148049052E009980F21AC
:1035600089040840810C2948405C0890099803218F
:1035700089050840800D401C079023480068C0035F
:1035800000280DD5FFE70898244A00230293194626
:10359000FCF782FE029B079AFCF796FE069020E05D
:1035A0001B480068C00600280DD5FFE708981A4A96
:1035B000002301931946FCF76FFE019B079AFCF765
:1035C00083FE06900CE00898124A002300931946E7
:1035D000FCF762FE009B079AFCF776FE0690FFE779
:1035E000FFE7069804900CE0FFE70D48006880B202
:1035F000400B05900598411C01208840C0030490B1
:10360000FFE704980AB080BD0C10024088590008FA
:10361000001002400024F40000093D0000127A006E
:103620000410024010B58AB008900898002805D10F
:10363000FFE709A90120087000F015FCFD480168AA
:103640000C221140049100680121090408400390F4
:1036500008980078C007002800D18DE00498082859
:103660000AD0FFE704980C2819D1FFE7039801213D
:103670000904884213D1FFE7EF480068012149049B
:103680000840400C002809D0FFE70898406800284F
:1036900004D1FFE709A901200870E4E36BE0FFE72C
:1036A0000898406801210904884207D1FFE7E249F0
:1036B0000868012212041043086021E0089840685D
:1036C0000521090488420BD1FFE7DB490868012284
:1036D00093041843086008681204104308600EE061
:1036E000D549086801221304984308600868184007
:1036F000029002980868920490430860FFE7FFE791
:10370000FFE70898406800281AD0FFE7FEF786FF19
:103710000790FFE7C8480068012149040840400CB1
:1037200000280CD1FFE7FEF779FF0799401A6528BA
:1037300004D3FFE709A90320087094E3EAE719E03E
:10374000FEF76CFF0790FFE7BB48006801214904C2
:103750000840400C00280CD0FFE7FEF75FFF0799F8
:10376000401A652804D3FFE709A9032008707AE30B
:10377000EAE7FFE7FFE7FFE70898007880070028FF
:1037800000D4A8E00898C068069006A800788006D3
:10379000002809D5FFE7A84A1068202108431060D7
:1037A000069888430690FFE70498042808D0FFE7AE
:1037B00004980C2841D1FFE7039800283DD1FFE78A
:1037C0009D480068042108408008002808D0FFE7D1
:1037D0000698002804D1FFE709A90120087042E3F8
:1037E000964908681F2212029043089A1269120231
:1037F000104308609049086809229043069A1043D4
:103800000860FFE7FFF770FE8A490968C9B20A0934
:103810008B49895CC8408B4908608B480068FFF77A
:10382000E3FA014605A801700078002804D0FFE7FC
:10383000059809A9087016E34CE0069800282AD0DC
:10384000FFE77D49086809229043069A1043086003
:10385000FEF7E4FE0790FFE7774800680421084080
:10386000800800280CD1FFE7FEF7D8FE0799401A20
:10387000032804D3FFE709A903200870F3E2EBE76C
:103880006E4908681F2212029043089A12691202B8
:10389000104308601DE068490868012290430860F1
:1038A000FEF7BCFE0790FFE763480068042108406C
:1038B000800800280CD0FFE7FEF7B0FE0799401AF9
:1038C000032804D3FFE709A903200870CBE2EBE744
:1038D000FFE7FFE7FFE708980078C006002800D45C
:1038E000A1E00498002845D1FFE753480068012172
:1038F00049020840400A002809D0FFE70898C0693B
:10390000002804D1FFE709A901200870ABE24B4968
:103910000868072252039043089A526A10430860CD
:103920000868FF2212069043089A126A120680184D
:1039300008600898406A400B411C01208840C00381
:103940003C490968C9B20A093D49895CC8403D49FA
:1039500008603D480068FFF747FA014605A8017076
:103960000078002804D0FFE7059809A908707AE2DA
:10397000FFE757E00898C069002832D0FFE72E49DA
:1039800008680122120210430860FEF747FE079004
:10399000FFE729480068012149020840400A002841
:1039A0000CD1FFE7FEF73AFE0799401A032804D32B
:1039B000FFE709A90320087055E2EAE71F490868F4
:1039C000072252039043089A526A1043086008681D
:1039D000FF2212069043089A126A120680180860A5
:1039E0001FE0154908680122120290430860FEF7A3
:1039F00015FE0790FFE710480068012149020840C2
:103A0000400A00280CD0FFE7FEF708FE0799401A8D
:103A1000032804D3FFE709A90320087023E2EAE79B
:103A2000FFE7FFE7FFE708980078000700284FD579
:103A30000CE0C0460C10024000100240041002408E
:103A4000705900080000002010000020089840690C
:103A500000281ED0FFE7FD490868012210430860D6
:103A6000FEF7DCFD0790FFE7F848006802210840F8
:103A7000400800280CD1FFE7FEF7D0FD0799401A57
:103A8000032804D3FFE709A903200870EBE1EBE763
:103A90001DE0F9490868012290430860FEF7BEFD69
:103AA0000790FFE7F448006802210840400800281A
:103AB0000CD0FFE7FEF7B2FD0799401A032804D3A4
:103AC000FFE709A903200870CDE1EBE7FFE7FFE777
:103AD000089800784007002800D4BBE001A9002026
:103AE0000870E6480068C000002809D4FFE7E34AF0
:103AF0001168012003071943116001A90870FFE74D
:103B0000DF480068C00500281DD4FFE7DC490868CD
:103B10000122120210430860FEF780FD0790FFE7C4
:103B2000D7480068C00500280CD4FFE7FEF776FDF3
:103B30000799401A652804D3FFE709A903200870F4
:103B400091E1EDE7FFE7FFE70898806801210902AE
:103B5000884207D1FFE7C8490868012212021043D2
:103B600008602EE00898806800280BD1FFE7C24962
:103B70000868012213029843086008689202904383
:103B800008601DE0089880680521090288420BD171
:103B9000FFE7B949086801229302184308600868E2
:103BA0001202104308600AE0B349086801221302B8
:103BB000984308600868920290430860FFE7FFE7B7
:103BC000FFE7FFE70898806800281BD0FFE7FEF7B3
:103BD00025FD0790FFE7A848006801214902084039
:103BE000400A00280DD1FFE7FEF718FD0799401A9B
:103BF000A449884204D3FFE709A90320087032E1F1
:103C0000E9E71AE0FEF70AFD0790FFE79A48006827
:103C1000012149020840400A00280DD0FFE7FEF7C5
:103C2000FDFC0799401A9749884204D3FFE709A988
:103C30000320087017E1E9E7FFE701A800780128F1
:103C400007D1FFE78D4908680122120790430860F9
:103C5000FFE7FFE7089800788006002854D5FFE7C3
:103C600008988069002829D0FFE7FFE7864908689F
:103C7000012210430860EF49086810430860834937
:103C80000868520310430860FFE7FEF7C7FC07907F
:103C9000FFE77D48006802210840400800280CD159
:103CA000FFE7FEF7BBFC0799401A032804D3FFE7A0
:103CB00009A903200870D6E0EBE724E0FFE772498A
:103CC00008680122904308607049086852039043D5
:103CD0000860FFE7FEF7A2FC0790FFE76A4800686C
:103CE00002210840400800280CD0FFE7FEF796FCB0
:103CF0000799401A032804D3FFE709A90320087095
:103D0000B1E0EBE7FFE7FFE70898806A002800D101
:103D1000A5E004980C2872D0FFE70898806A022872
:103D20004CD1FFE75349086801221206904308600E
:103D3000FEF774FC0790FFE74E4800680121490632
:103D40000840400E00280CD0FFE7FEF767FC0799FB
:103D5000401A032804D3FFE709A90320087082E072
:103D6000EAE743490868FD2212049043089BDA6A97
:103D70001C6B22435B6B1A43104308603D49086883
:103D80000122120610430860FEF748FC0790FFE787
:103D900038480068012149060840400E00280CD12F
:103DA000FFE7FEF73BFC0799401A032804D3FFE71F
:103DB00009A90320087056E0EAE71FE02D490868CA
:103DC0000122120690430860FEF728FC0790FFE7E7
:103DD00028480068012149060840400E00280CD000
:103DE000FFE7FEF71BFC0799401A032804D3FFE7FF
:103DF00009A90320087036E0EAE7FFE72EE00898FB
:103E0000806A012804D1FFE709A9012008702AE08F
:103E10001748006803900398012109040840089995
:103E2000C96A884214D1FFE703980F21890408402A
:103E30000899096B88420BD1FFE703980321890594
:103E400008400899496B884206D001E050100240B2
:103E500009A90120087006E0FFE7FFE7FFE709A9CD
:103E600000200870FFE709A800780AB010BDC0461E
:103E70000C10024000100240501002403810024066
:103E8000007000408913000008100240200001402B
:103E900070B584B002900298002804D1FFE703A90E
:103EA0000120087071E00298406A00280DD1FFE7F8
:103EB0000298406841218900884201D1FFE703E070
:103EC00002990020C861FFE705E00299002008611F
:103ED00002994861FFE70299002088620298512107
:103EE000405C002808D1FFE7029950220020885446
:103EF000029800F04FF8FFE7029851230226C654BB
:103F0000029801680868402290430860029A019272
:103F1000506841218900084091682124A402214071
:103F20004018D5680121CC0225404019156935405B
:103F3000401955690D40401995694E0235404019A8
:103F4000D569382635404019156A80263540284302
:103F5000956A4E033540284312681060029A508BD0
:103F600004252840556A10263540401912685060D3
:103F700002980268D069A043D061029A002050657F
:103F8000029AD15403A90870FFE703A8007804B08F
:103F900070BD000010B58CB00B9000200A90099005
:103FA0000890079006900B980068214988423CD100
:103FB000FFE7204908680122120310430860FFE769
:103FC0006948026801210A430260006808400590C0
:103FD0000598FFE7FFE76448026802210A43026090
:103FE0000068084004900498FFE7C0200690022073
:103FF0000090079000200290089003210191099100
:104000000A900520000706A90391FEF767F9009BB7
:10401000019A02980399082406940793089009923C
:104020000A900548FEF75AF9FFE70CB010BDC046EC
:1040300000300140341002400004005080B582B0CE
:104040000190019800F098FD02B080BD80B582B06B
:1040500000900098002804D1FFE701A90120087012
:1040600048E000988069002801D0FFE700E0FFE702
:104070000098806F002808D1FFE700997422002083
:104080008854009800F03AF8FFE7009924208867E8
:10409000009801680868012290430860009800F0C9
:1040A000EBFE012804D1FFE701A90120087021E0FF
:1040B0000098406A002804D0FFE7009800F0DDFD7A
:1040C000FFE70098016848680922D20290434860DF
:1040D0000098016888682A229043886000980168E7
:1040E0000868012210430860009800F073FE01A9DF
:1040F0000870FFE701A8007802B080BD80B588B0E5
:104100000790002006900590049003900290079875
:1041100000681349884221D1FFE71249086801224B
:10412000520410430860FFE70F48026801210A4368
:1041300002600068084001900198FFE70C2002909F
:104140000220039000200490032005900420069094
:104150000520000702A9FEF7C1F8FFE708B080BDFF
:1041600000440040381002402C100240FFE7FEE7F8
:1041700081B00090009800688069022108404008E2
:10418000002805D0FFE70098016800208862FFE75B
:10419000009800688069C007002807D1FFE70098F1
:1041A00001688869012210438861FFE701B0704708
:1041B00080B586B0049003910292049800688069EB
:1041C00010210840000901286DD1FFE7049800681C
:1041D0004068012149060840884208D0FFE704985A
:1041E000016848680122920310434860FFE7FFE737
:1041F000049800688069202108404009002829D1DE
:10420000FFE70398401C002823D0FFE7FEF706FADB
:104210000299401A0399884204D8FFE703980028BE
:1042200016D1FFE7049A516C202001435164049990
:10423000412288540499422200208854FFE70499BF
:10424000402200208854FFE705A9012008702EE0D5
:10425000FFE7CDE7049801681020C8610498016861
:1042600020200190C8610498FFF782FF019804990B
:104270000A685168104B19405160049A516C04232C
:104280001943516404994122885404994222002020
:104290008854FFE70499402200208854FFE705A9CD
:1042A0000120087003E005A900200870FFE705A8B9
:1042B000007806B080BDC04600E800FE10B588B0AA
:1042C0000291014602980B9C0A9C069105A9088060
:1042D00004A8028003AA1380069809881278534B19
:1042E0000093002300F0A4F806980A990B9A00F0B6
:1042F00054F9002804D0FFE707A90120087034E032
:1043000003A80088012806D1FFE704A800780699D1
:104310000968886216E004A84078069909688862EE
:1043200006980A990B9A00F038F9002804D0FFE7A4
:1043300007A90120087018E004A800780699096808
:104340008862FFE706980A9B0B99009140210022A2
:1043500000F096F8002804D0FFE707A901200870B4
:1043600003E007A900200870FFE707A8007808B05D
:1043700010BDC04610B588B00291014602980B9C52
:104380000A9C069105A9088004A8028003AA13804C
:10439000069809881278254B009301231B0600F02C
:1043A00047F806980A990B9A00F0F7F8002804D00D
:1043B000FFE707A90120087034E003A8008801285E
:1043C00006D1FFE704A8007806990968886216E01C
:1043D00004A8407806990968886206980A990B9A99
:1043E00000F0DBF8002804D0FFE707A901200870DF
:1043F00018E004A80078069909688862FFE7069823
:104400000A9B0B9900918021002200F039F80028C6
:1044100004D0FFE707A90120087003E007A90020E6
:104420000870FFE707A8007808B010BD00200080E2
:1044300010B585B000930B4601460098079C049187
:1044400003A90B8002AB1A700190049800684068C1
:10445000079A540DA043084C20400988074C21407E
:104460001B781B04C918019B194311430843049985
:104470000968486005B010BD009C00FCFF03000007
:1044800010B586B0089C0490039102A802700193B5
:10449000FFE704980068806903990840401A414288
:1044A000484102A90978884229D1FFE70198401CB8
:1044B000002823D0FFE7FEF7B1F80899401A0199C8
:1044C000884204D8FFE70198002816D1FFE7049A34
:1044D000516C20200143516404994122885404996D
:1044E000422200208854FFE704994022002088548B
:1044F000FFE705A90120087005E0FFE7C9E705A966
:1045000000200870FFE705A8007806B010BD80B550
:1045100084B0029001910092FFE7029800688069E0
:1045200020210840400900282FD1FFE70298019977
:10453000009AFFF73DFE002804D0FFE703A9012001
:10454000087026E0FEF76AF80099401A019988423F
:1045500004D8FFE70198002816D1FFE7029A516CB2
:104560002020014351640299412288540299422239
:1045700000208854FFE70299402200208854FFE77A
:1045800003A90120087004E0C7E703A90020087010
:10459000FFE703A8007804B080BD80B584B0029026
:1045A00001910092FFE702980068806902210840AB
:1045B0004008002835D1FFE702980199009AFFF7DB
:1045C000F7FD002804D0FFE703A9012008702CE0C4
:1045D0000198401C002823D0FFE7FEF71FF8009940
:1045E000401A0199884204D8FFE70198002816D1A3
:1045F000FFE7029A516C2020014351640299412245
:1046000088540299422200208854FFE702994022F0
:1046100000208854FFE703A90120087005E0FFE7A8
:10462000C1E703A900200870FFE703A8007804B0E1
:1046300080BD000080B586B0049004987D21C9003B
:10464000029101230193164903910091B8210F2291
:10465000FEF70CF903980078BD2804D0FFE705A900
:104660000120087017E03349802008700498642204
:104670000292012301930091B8212022FEF728FA2B
:10468000002804D0FFE705A90120087003E005A970
:1046900000200870FFE705A8007806B080BDC0467E
:1046A0007A00002080B58AB00890224901230B705F
:1046B00008986422029201930091B8212122FEF70A
:1046C00007FA002804D0FFE77F20C00509902EE0FC
:1046D00008986421039102910123059301931649DF
:1046E00006910091B82104912B22FEF7BFF8039A9E
:1046F0000499059B089802920193104A0792009230
:104700002C22FEF7B3F80699079800780002097882
:1047100041180B4801800021405EFCF74BF8094925
:10472000FBF774FF084900F0C7FF0990FFE70998FD
:104730000AB080BD7B0000207900002078000020B6
:10474000140200200000F04300002A4280B584B02B
:1047500000210091039102911A4801901A4A0260C7
:10476000C16303229207426081608163012202617A
:10477000C1602023C1542123C1548162FF23C2336D
:1047800043622C23C154042343610163816142636A
:10479000C161FDF7F7FB002803D0FFE7FDF73CFB05
:1047A000FFE70A480290012000030390054802A990
:1047B000FDF73AFB002803D0FFE7FDF72DFBFFE7ED
:1047C00004B080BD7C0000200024014002000004F1
:1047D00070B590B000200F900E900D900C900B9043
:1047E000FFE74248026804210A430260006808406B
:1047F0000A900A98FFE7FFE73C48026880210A43D5
:1048000002600068084009900998FFE7FFE7374811
:10481000026801210A430260006808400890089875
:10482000FFE7FFE73148026802210A43026000689F
:10483000084007900798FFE7CE4800902C4E0022D2
:1048400004923146FDF7D4FE049A05200007029039
:1048500020252946FDF7CCFE049A3D200401254879
:1048600005902146FDF7C4FE0098049901220392A9
:1048700052030B922122019212040C920D910BA96A
:104880000691FDF72BFD0098039B049A06990B9661
:104890000C930D920E92FDF721FD0298039B049A52
:1048A00006990B950C930D920E92FDF717FD019B47
:1048B000049A059806990B930C920D92FDF70EFD44
:1048C0000298039B049A0699DB030B930C920D92BA
:1048D000FDF704FD039B049A059806990B940C932D
:1048E0000D920E92FDF7FAFC10B070BD2C10024034
:1048F000FF0F00000004005080B582B01648019000
:1049000016490160E121C900416000218160012256
:10491000C260016141618161C1610162FDF720FFF7
:10492000002803D0FFE7FDF777FAFFE70A480021E8
:10493000FDF77AFE002803D0FFE7FDF76DFAFFE7E9
:1049400005480021FDF7BBFE002803D0FFE7FDF777
:1049500063FAFFE702B080BDD80000200058004095
:1049600080B582B00F4800900F4901604121890055
:104970004160002101918160C160016141610122BA
:1049800052028261C1610162416281620721C1629A
:10499000FFF77EFA002803D0FFE7FDF73DFAFFE7B7
:1049A00002B080BD240100200030014080B582B0FB
:1049B0000D4801900D490160E1214902416000214B
:1049C0008160C16001610C2242618161C16101624B
:1049D0004162FFF73BFB002803D0FFE7FDF71CFA1D
:1049E000FFE702B080BDC0467C01002000440040CB
:1049F000FFE7FEE77047704780B58EB00D900D98C9
:104A0000FBF7DAFD02460B46374800903749FBF7C3
:104A1000E3FC00990A78303A354802704A78303A17
:104A2000344B02931A708A78303A334B04931A70DD
:104A3000C9783039314A06921170017830480790B0
:104A4000405C00F05FF801220892D10201914948D0
:104A50000A90FDF7CDFD02200990FDF71DFC01999C
:104A60000A9800220C92FDF7C3FD02990798097875
:104A7000405C00F047F8089A0A9891020391FDF70C
:104A8000B7FD0998FDF708FC03990A980C9AFDF701
:104A9000AFFD049907980978405C00F033F8089A54
:104AA0000A9851020591FDF7A3FD0998FDF7F4FB63
:104AB00005990A980C9AFDF79BFD069907980978C5
:104AC000405C00F01FF8089A0A9811020B91FDF75C
:104AD0008FFD0998FDF7E0FB0A980B990C9AFDF7FA
:104AE00087FD0EB080BDC046040200209159000829
:104AF00008020020090200200A0200200B02002008
:104B00000400002080B582B0014601A8017002783F
:104B100001210A4017480090FDF76AFD00980199AD
:104B20008907CA0F0221FDF763FD00980199490723
:104B3000CA0F0421FDF75CFD009801990907CA0F0F
:104B40000821FDF755FD00980199C906CA0F1021EB
:104B5000FDF74EFD009801998906CA0F2021FDF747
:104B600047FD009801994906CA0F4021FDF740FD15
:104B700002B080BD0008005080B584B00290029859
:104B8000401E000E002803D0FFE70120039011E033
:104B90000298401E0949086000200190C04303218B
:104BA00000F0B4FC019806490860064A072111602C
:104BB0000390FFE7039804B080BDC04614E000E016
:104BC00018E000E010E000E080B503490868401CF0
:104BD0000860FEF7E3F880BD00020020B0B5A0B089
:104BE00012A802903821FBF72BFC002001901190B5
:104BF00010900F900E900D9003A82821FBF720FC39
:104C0000019902981B4C23680322D202934301228C
:104C1000D5025B1923601023129319921A91052271
:104C200052031B921C91FEF7FDFC002803D0FFE706
:104C3000FDF7F2F8FFE70F200D9000210E910F9184
:104C4000109111910DA8FEF7ADFA002803D0FFE7EF
:104C5000FDF7E2F8FFE7022003900020079003A889
:104C6000FEF718F9002803D0FFE7FDF7D5F8FFE7B6
:104C700020B0B0BD00700040704781B00090009837
:104C80002421405CC00700280CD0FFE70098006892
:104C9000406801214904884300998A6A10430968E1
:104CA0004860FFE700982421405C800700280CD56D
:104CB000FFE70098006840680121090488430099D3
:104CC000CA6A104309684860FFE700982421405CE5
:104CD000400700280CD5FFE70098006840680121D4
:104CE0008904884300990A6B104309684860FFE70C
:104CF00000982421405C000700280CD5FFE70098AD
:104D0000006840680121C903884300994A6B104339
:104D100009684860FFE700982421405CC00600282D
:104D20000CD5FFE7009800688068012109038843DB
:104D300000998A6B104309688860FFE70098242176
:104D4000405C800600280CD5FFE70098006880686A
:104D50000121490388430099CA6B104309688860A0
:104D6000FFE700982421405C400600281DD5FFE79E
:104D7000009800684068012109058843009A136C77
:104D80001843126850600098006C88420CD1FFE70D
:104D900000980068406803214905884300994A6CDF
:104DA000104309684860FFE7FFE700982421405C52
:104DB000000600280CD5FFE7009800684068012134
:104DC000C904884300998A6C104309684860FFE76A
:104DD00001B0704780B584B0029002998022002013
:104DE0008850FDF71BFC01900298006800680007DE
:104DF000002811D5FFE70298019B1E49009101216F
:104E00004905002200F0BCFA002804D0FFE703A9FE
:104E1000032008702AE0FFE7029800680068400756
:104E2000002811D5FFE70298019B1249009101214A
:104E30008905002200F0A4FA002804D0FFE703A9A6
:104E40000320087012E0FFE702992020886702998A
:104E5000C867029900200866FFE7029974220020C3
:104E60008854FFE703A900200870FFE703A8007833
:104E700004B080BDFFFFFF0110B58EB00D9008A9F2
:104E8000002008700D980068D549884201D1FFE7DD
:104E900000E0FFE70D9988680A6910434A691043EA
:104EA000C96908430C900D9800680068F8490840EB
:104EB0000C9908430D99096808600D9800684068CE
:104EC0000321090388430D99CA68104309684860A3
:104ED0000D9880690C900D980068C149884206D0F1
:104EE000FFE70D98016A0C9808430C90FFE70D98B6
:104EF000006880680B21090288430C9908430D99CA
:104F000009688860FFE70D980068EF4988422AD158
:104F1000FFE7EE48006803210840069003281DD8EB
:104F20000698810001A040588746C0463D4F0008C2
:104F30004D4F0008454F0008554F00080AA90120B1
:104F400008700FE00AA9022008700BE00AA90420EB
:104F5000087007E00AA90820087003E00AA91020D9
:104F60000870FFE793E00D980068FD4988423CD146
:104F7000FFE7D64800680C21084005900C282FD880
:104F80000598810001A040588746C046C14F0008DF
:104F9000E14F0008E14F0008E14F0008D14F000841
:104FA000E14F0008E14F0008E14F0008C94F000839
:104FB000E14F0008E14F0008E14F0008D94F000819
:104FC0000AA9002008700FE00AA9022008700BE06F
:104FD0000AA90420087007E00AA90820087003E065
:104FE0000AA910200870FFE750E00D980068DE491C
:104FF000884204D1FFE70AA90020087045E00D9817
:105000000068DA49884204D1FFE70AA90020087045
:105010003AE00D980068D349884230D1FFE7D44880
:1050200000680321890208400490002812D0FFE79D
:10503000049801218902884214D0FFE704980121D5
:10504000C90288420AD0FFE70498032189028842F6
:105050000CD00FE00AA9002008700FE00AA9022076
:1050600008700BE00AA90420087007E00AA90820CC
:10507000087003E00AA910200870FFE703E00AA9FE
:1050800010200870FFE7FFE7FFE7FFE7FFE7FFE714
:105090000D980068B349884276D1FFE70AA80078E6
:1050A0000390082831D80398810001A04058874612
:1050B000D55000080B510008DD5000080B510008C6
:1050C000FB5000080B5100080B5100080B51000861
:1050D00003510008FEF7E8F907901CE0A5480068B6
:1050E000102108400009002803D0FFE7A3480790DB
:1050F00002E0A1480790FFE70DE0FEF7F5F9079001
:1051000009E00120C003079005E00020079008A9EE
:1051100001200870FFE70798002834D0FFE70798C0
:105120000D994A6803215143884207D3FFE7079846
:105130000D9949680903884204D9FFE708A90120AD
:1051400008701FE00798010E00020D9A526854087B
:10515000002300195941FBF7B7F809900998000A94
:1051600003280AD3FFE70998000D002805D1FFE7BF
:1051700009980D990968C86003E008A90120087022
:10518000FFE7FFE7FFE7E2E00D98C0690121C903EF
:10519000884272D1FFE70AA800780290082838D820
:1051A0000298810001A040588746C046D1510008AE
:1051B000D9510008E55100081352000803520008B5
:1051C0001352000813520008135200080B52000833
:1051D000FEF76AF9079022E0FEF774F907901EE0E7
:1051E000004800406348006810210840000900287A
:1051F00003D0FFE76148079002E05F480790FFE7B0
:105200000DE0FEF771F9079009E00120C003079057
:1052100005E00020079008A901200870FFE7079823
:10522000002829D0FFE7079840000D9949684A08EF
:105230008018FBF707F980B209900998102816D357
:10524000FFE709A84088002811D1FFE709990F203E
:1052500081430BA8018009990E2211404A080B993D
:105260001143018000880D990968C86003E008A90E
:1052700001200870FFE7FFE768E00AA800780190C6
:1052800008283CD80198810002A040588746C046B3
:10529000F369FFEFB9520008C1520008D15200086B
:1052A000FF520008EF520008FF520008FF520008AA
:1052B000FF520008F7520008FEF7F6F8079024E0C6
:1052C000FEF700F9079020E0003801404C10024042
:1052D00028480068102108400009002803D0FFE793
:1052E0002648079002E024480790FFE70DE0FEF70C
:1052F000FBF8079009E00120C003079005E00020BB
:10530000079008A901200870FFE7079800281CD023
:10531000FFE707980D9949684A088018FBF792F84B
:1053200080B20990099810280AD3FFE709A840889D
:10533000002805D1FFE709980D990968C86003E0C6
:1053400008A901200870FFE7FFE7FFE7FFE70D99D5
:10535000002048660D99886608A800780EB010BD38
:105360000044004000480040004C00400050004015
:105370004C100240001002400024F40000093D00DF
:1053800010B596B0189C0890079106A80270059376
:10539000FFE708980068C06907990840401A414231
:1053A000484106A90978884200D0A6E01898401C18
:1053B000002800D1A0E0FDF731F90599401A1899AD
:1053C000884204D8FFE7189800283DD1FFE7FFE79F
:1053D000EFF310800D900D98049001201590159812
:1053E00080F310880898016808680D2252019043E4
:1053F000086004981490149880F31088FFE7FFE782
:10540000EFF310800C900C980390012213921398E4
:1054100080F3108808980168886890438860039832
:105420001290129880F31088FFE70899202088676F
:105430000899C867FFE70899742200208854FFE79D
:1054400009A9032008705CE008980068006840071C
:10545000002850D5FFE708980068C0690121C902FB
:105460000840C00A012845D1FFE7089801680120DB
:10547000C0020862FFE7EFF310800B900B980290D8
:1054800001201190119880F310880898016808682D
:105490000D2252019043086002981090109880F3FA
:1054A0001088FFE7FFE7EFF310800A900A98019059
:1054B00001220F920F9880F310880898016888687D
:1054C0009043886001980E900E9880F31088FFE753
:1054D0000899202088670899C86708998022885011
:1054E000FFE70899742200208854FFE709A90320E8
:1054F000087006E0FFE7FFE74BE709A90020087006
:10550000FFE709A8007816B010BD000070B582B0A2
:10551000024601A80270009100214056002816D4CE
:10552000FFE7002401A908570322D3431840174A74
:10553000805809578C07E50EFF24AC40A043009C1F
:10554000A401E4B2AC402043194088501AE001A9FC
:1055500008780F24204008380322D34318400A4A11
:105560008058002549578D07EE0EFF25B540A8430A
:10557000009DAD01EDB2B5402843214008391940E6
:105580008850FFE702B070BD1CED00E000E400E0D1
:1055900080B582B000200190FDF70AFCFFF71EFBEA
:1055A000FFF716F9FFF7D2F8FFF7A6F9FFF7D8F9DA
:1055B000FFF7FCF90B48FFF73DF8FFE70A480068E2
:1055C000C0087D2809D3FFE70648FFF76BF80749B5
:1055D0000860054900200860FFE70548FFF70CFA5E
:1055E000ECE7C046D8000020000200200C0200209A
:1055F00033ABA544F8B5040C8BB2264682B25E43A9
:10560000104658430D0C370C3604002180191646FD
:1056100079416E43370C36048019264679416E4332
:105620008919F8BD4900CA020243100000D00420C5
:105630004A0D01D001221043044A490D914201D183
:1056400002210843012800D105207047FF07000010
:1056500030380A2801D2012070470020704700002E
:1056600010B500290AD00878002807D005487844EA
:10567000FCF76AFB002801D0002010BD02487844E6
:1056800010BD00004A0300004203000010B50029CD
:105690000AD00878002807D005487844FCF754FB66
:1056A000002801D0002010BD0248784410BD000041
:1056B0003A0300003203000070B50125ED07040035
:1056C0004C4020D4441A01D2001B0919C60D4B00CE
:1056D000F2B2FF2A29D01B0E2CD000020C02284364
:1056E0002C43D31ADC40051910D2280A02D3401CDF
:1056F0006D0611D0761EF6058019FF2A00DA70BDFE
:10570000C00DC00570BD694000F022F801200543BE
:10571000C541521C761CE8E764089C40C901614001
:105720008900E7D10124A043E4E71B0E440200D026
:10573000034870BD002AFCD1C00FC00770BD00BF78
:105740000000C07F70B50125ED0704004C4022D455
:10575000441A02D26C40001B0919C60D4B00F2B26C
:10576000FF2A4BD01B0E50D000020C02A8432C4342
:10577000D31ADC40051B05D5AD0019D36D08761E84
:10578000521E37D0F605280A01D2801970BD70412B
:105790006D0603D070BD6940FFF794FF9C4009027D
:1057A0006140490001D0401E70BD0124A04370BD7E
:1057B0006D081DD001202B0C01D12D0410302B0EB3
:1057C00001D12D0208302B0F01D12D01001DAB0F8F
:1057D00001D1AD00801CEB0F01D16D00401C361AC9
:1057E000121A6D00680AF5054019012A02DB70BD26
:1057F000002070BDC036300AC00770BD1B0E4402C9
:1058000001D1FF2B00D1024870BD002AF0D070BD3D
:105810000000C07F03B402487844844603BC60475C
:10582000C9B7FFFF03B402487844844603BC60470D
:1058300031BAFFFF8182838485868788898B8C8D2E
:105840008E8F919293959697999A9C9D9FA0A2A3D3
:10585000A5A7A8AAACAEB0B2B3B5B7B9BCBEC0C21A
:10586000C5C7C9CCCED1D4D7D9DCDFE2E6E9ECF0AC
:10587000F3F7FAFE00000000000000003031323380
:105880003435363738394142434445464030580074
:1058900030313233343536373839616263646566A6
:1058A0004030780004000008000000000000000202
:1058B0000001000010303132333435363738396169
:1058C0006263646566787000303132333435363760
:1058D00038394142434445465850000002400000D8
:1058E000000000A00000000005400000000000C80B
:1058F000000000000C4000000000409C0000000080
:10590000194000000020BCBE000000003440000030
:10591000BFC91B8E00000004B5400000504BCFD023
:105920006607E2CF010000006C4100003E8251AAF0
:10593000DFEEA73401000000D9420000DCB5A0E290
:105940003A301F97FFFFFFFFB4450000FD25A0C8B8
:10595000E9A3C14FFFFFFFFFFF3F000000000080F1
:1059600000000000FF3F0000000000800000000079
:1059700000000000000000000102030406070809FF
:105980000000000001020304030406080C101820A4
:105990003025342E30660000E85A00080000002050
:1059A0001800000004010008005B00081800002037
:1059B00000080000200100081C0000004300000057
:1059C000F8FFFFFF0C0000000E0000000F000000B9
:1059D0002E0000001001000043000000F8FFFFFF50
:1059E00000404040404040404040414141414140F2
:1059F00040404040404040404040404040404040A7
:105A00004005020202020202020202020202020235
:105A1000022020202020202020202002020202023A
:105A20000202909090909090101010101010101092
:105A3000101010101010101010101010020202029E
:105A400002028888888888880808080808080808E2
:105A500008080808080808080808080802020202DE
:105A600040000000000000000000000000000000F6
:105A70000000000000000000000000000000000026
:105A80000000000000000000000000000000000016
:105A90000000000000000000000000000000000006
:105AA00000000000000000000000000000000000F6
:105AB00000000000000000000000000000000000E6
:105AC00000000000000000000000000000000000D6
:105AD00000000000000000000000000000000000C6
